{
  "contractName": "RandaoFlipper",
  "abi": [
    {
      "constant": true,
      "inputs": [],
      "name": "ownerReward",
      "outputs": [
        {
          "name": "",
          "type": "uint256"
        }
      ],
      "payable": false,
      "stateMutability": "view",
      "type": "function",
      "signature": "0x0c0116ba"
    },
    {
      "constant": true,
      "inputs": [],
      "name": "totalFund",
      "outputs": [
        {
          "name": "",
          "type": "uint256"
        }
      ],
      "payable": false,
      "stateMutability": "view",
      "type": "function",
      "signature": "0x100aca47"
    },
    {
      "constant": true,
      "inputs": [],
      "name": "ownerPayable",
      "outputs": [
        {
          "name": "",
          "type": "address"
        }
      ],
      "payable": false,
      "stateMutability": "view",
      "type": "function",
      "signature": "0x48b68140"
    },
    {
      "constant": true,
      "inputs": [
        {
          "name": "",
          "type": "uint256"
        }
      ],
      "name": "GameConfigurations",
      "outputs": [
        {
          "name": "participantsNumber",
          "type": "uint256"
        },
        {
          "name": "winnersNumber",
          "type": "uint256"
        },
        {
          "name": "duration",
          "type": "uint256"
        }
      ],
      "payable": false,
      "stateMutability": "view",
      "type": "function",
      "signature": "0x5298b5db"
    },
    {
      "constant": false,
      "inputs": [],
      "name": "renounceOwnership",
      "outputs": [],
      "payable": false,
      "stateMutability": "nonpayable",
      "type": "function",
      "signature": "0x715018a6"
    },
    {
      "constant": true,
      "inputs": [],
      "name": "owner",
      "outputs": [
        {
          "name": "",
          "type": "address"
        }
      ],
      "payable": false,
      "stateMutability": "view",
      "type": "function",
      "signature": "0x8da5cb5b"
    },
    {
      "constant": true,
      "inputs": [],
      "name": "isOwner",
      "outputs": [
        {
          "name": "",
          "type": "bool"
        }
      ],
      "payable": false,
      "stateMutability": "view",
      "type": "function",
      "signature": "0x8f32d59b"
    },
    {
      "constant": true,
      "inputs": [
        {
          "name": "",
          "type": "uint256"
        }
      ],
      "name": "GameSessions",
      "outputs": [
        {
          "name": "id",
          "type": "uint256"
        },
        {
          "name": "configId",
          "type": "uint256"
        },
        {
          "name": "deposit",
          "type": "uint256"
        },
        {
          "name": "random",
          "type": "uint256"
        },
        {
          "name": "commitCounter",
          "type": "uint256"
        },
        {
          "name": "revealCounter",
          "type": "uint256"
        },
        {
          "name": "deadline",
          "type": "uint256"
        },
        {
          "name": "ownerInvolved",
          "type": "bool"
        },
        {
          "name": "completed",
          "type": "bool"
        },
        {
          "name": "closed",
          "type": "bool"
        }
      ],
      "payable": false,
      "stateMutability": "view",
      "type": "function",
      "signature": "0x95e6a53c"
    },
    {
      "constant": true,
      "inputs": [],
      "name": "totalWinners",
      "outputs": [
        {
          "name": "",
          "type": "uint256"
        }
      ],
      "payable": false,
      "stateMutability": "view",
      "type": "function",
      "signature": "0xbcc941b6"
    },
    {
      "constant": false,
      "inputs": [
        {
          "name": "newOwner",
          "type": "address"
        }
      ],
      "name": "transferOwnership",
      "outputs": [],
      "payable": false,
      "stateMutability": "nonpayable",
      "type": "function",
      "signature": "0xf2fde38b"
    },
    {
      "inputs": [],
      "payable": false,
      "stateMutability": "nonpayable",
      "type": "constructor",
      "signature": "constructor"
    },
    {
      "anonymous": false,
      "inputs": [
        {
          "indexed": false,
          "name": "id",
          "type": "uint256"
        }
      ],
      "name": "GameConfigurationCreated",
      "type": "event",
      "signature": "0xcaa0982fe217a060eba38c5f803a60904144cc0add6d0021f499515372d4e659"
    },
    {
      "anonymous": false,
      "inputs": [
        {
          "indexed": false,
          "name": "id",
          "type": "uint256"
        }
      ],
      "name": "GameCreated",
      "type": "event",
      "signature": "0xbd19c47e9925eb6f7be8bb1c13a841e0240aaeaf17f217e90022e9c8eb66877f"
    },
    {
      "anonymous": false,
      "inputs": [
        {
          "indexed": false,
          "name": "gameId",
          "type": "uint256"
        },
        {
          "indexed": false,
          "name": "participant",
          "type": "address"
        }
      ],
      "name": "NumberCommited",
      "type": "event",
      "signature": "0xa9d3a5977e0cd7de9e156619ae5c36ea08cf51e273376bdc93c7f11cf429131b"
    },
    {
      "anonymous": false,
      "inputs": [
        {
          "indexed": false,
          "name": "gameId",
          "type": "uint256"
        },
        {
          "indexed": false,
          "name": "participant",
          "type": "address"
        }
      ],
      "name": "NumberRevealed",
      "type": "event",
      "signature": "0x4b4f3d51c962e0b1d6d8601b0782ca79ee89bc19c1e30cb032467a497acd1096"
    },
    {
      "anonymous": false,
      "inputs": [
        {
          "indexed": false,
          "name": "gameId",
          "type": "uint256"
        },
        {
          "indexed": false,
          "name": "winners",
          "type": "address[]"
        }
      ],
      "name": "GameCompleted",
      "type": "event",
      "signature": "0xa7690f576eaef889ef9ef29d1eaee6c0e3b073108b66bb8009ec8af6428bb345"
    },
    {
      "anonymous": false,
      "inputs": [
        {
          "indexed": false,
          "name": "gameId",
          "type": "uint256"
        }
      ],
      "name": "GameClosed",
      "type": "event",
      "signature": "0x71f4c9aec1b2c51302bcaf09a3f4985709759853536445493905081899603a21"
    },
    {
      "anonymous": false,
      "inputs": [
        {
          "indexed": false,
          "name": "gameId",
          "type": "uint256"
        },
        {
          "indexed": false,
          "name": "receiver",
          "type": "address"
        },
        {
          "indexed": false,
          "name": "reward",
          "type": "uint256"
        }
      ],
      "name": "RewardSent",
      "type": "event",
      "signature": "0x2d2c3375da5b0a5f617bbcefa38e413a9ef5f70e50d0f9c5f6cc0adc3fa35779"
    },
    {
      "anonymous": false,
      "inputs": [
        {
          "indexed": false,
          "name": "gameId",
          "type": "uint256"
        },
        {
          "indexed": false,
          "name": "reward",
          "type": "uint256"
        }
      ],
      "name": "RewardSentOwner",
      "type": "event",
      "signature": "0x6511a9267f47b4c45087ba28e0d5796415a6d1133f8d6830a3d53b68c15cb947"
    },
    {
      "anonymous": false,
      "inputs": [
        {
          "indexed": false,
          "name": "gameId",
          "type": "uint256"
        },
        {
          "indexed": false,
          "name": "receiver",
          "type": "address"
        },
        {
          "indexed": false,
          "name": "deposit",
          "type": "uint256"
        }
      ],
      "name": "DepositGetBack",
      "type": "event",
      "signature": "0xaa7c10251886c33e23e8d1e4a860903c5da687ae76635d0e4f791b05b6fb1fbc"
    },
    {
      "anonymous": false,
      "inputs": [
        {
          "indexed": true,
          "name": "previousOwner",
          "type": "address"
        },
        {
          "indexed": true,
          "name": "newOwner",
          "type": "address"
        }
      ],
      "name": "OwnershipTransferred",
      "type": "event",
      "signature": "0x8be0079c531659141344cd1fd0a4f28419497f9722a3daafe3b4186f6b6457e0"
    },
    {
      "constant": true,
      "inputs": [
        {
          "name": "s",
          "type": "uint256"
        },
        {
          "name": "sender",
          "type": "address"
        }
      ],
      "name": "encode",
      "outputs": [
        {
          "name": "",
          "type": "bytes32"
        }
      ],
      "payable": false,
      "stateMutability": "pure",
      "type": "function",
      "signature": "0x2c7507a8"
    },
    {
      "constant": false,
      "inputs": [
        {
          "name": "_participantsNumber",
          "type": "uint256"
        },
        {
          "name": "_winnersNumber",
          "type": "uint256"
        },
        {
          "name": "_duration",
          "type": "uint256"
        }
      ],
      "name": "createConfiguration",
      "outputs": [],
      "payable": false,
      "stateMutability": "nonpayable",
      "type": "function",
      "signature": "0xda793b06"
    },
    {
      "constant": true,
      "inputs": [],
      "name": "getConfigurationsCount",
      "outputs": [
        {
          "name": "configurationsCount",
          "type": "uint256"
        }
      ],
      "payable": false,
      "stateMutability": "view",
      "type": "function",
      "signature": "0x379c0424"
    },
    {
      "constant": true,
      "inputs": [
        {
          "name": "gameId",
          "type": "uint256"
        }
      ],
      "name": "getGame",
      "outputs": [
        {
          "name": "id",
          "type": "uint256"
        },
        {
          "name": "configId",
          "type": "uint256"
        },
        {
          "name": "deposit",
          "type": "uint256"
        },
        {
          "name": "random",
          "type": "uint256"
        },
        {
          "name": "commitCounter",
          "type": "uint256"
        },
        {
          "name": "revealCounter",
          "type": "uint256"
        },
        {
          "name": "deadline",
          "type": "uint256"
        },
        {
          "name": "ownerInvolved",
          "type": "bool"
        },
        {
          "name": "completed",
          "type": "bool"
        },
        {
          "name": "closed",
          "type": "bool"
        },
        {
          "name": "participants",
          "type": "address[]"
        },
        {
          "name": "winners",
          "type": "address[]"
        }
      ],
      "payable": false,
      "stateMutability": "view",
      "type": "function",
      "signature": "0xa2f77bcc"
    },
    {
      "constant": true,
      "inputs": [
        {
          "name": "gameId",
          "type": "uint256"
        },
        {
          "name": "_participant",
          "type": "address"
        }
      ],
      "name": "getGameParticipant",
      "outputs": [
        {
          "name": "secret",
          "type": "bytes32"
        },
        {
          "name": "revealed",
          "type": "bool"
        },
        {
          "name": "commited",
          "type": "bool"
        },
        {
          "name": "rewarded",
          "type": "bool"
        }
      ],
      "payable": false,
      "stateMutability": "view",
      "type": "function",
      "signature": "0x022c696e"
    },
    {
      "constant": true,
      "inputs": [],
      "name": "getGamesCount",
      "outputs": [
        {
          "name": "gamesCount",
          "type": "uint256"
        }
      ],
      "payable": false,
      "stateMutability": "view",
      "type": "function",
      "signature": "0x17b7a476"
    },
    {
      "constant": false,
      "inputs": [
        {
          "name": "_configId",
          "type": "uint256"
        },
        {
          "name": "_secret",
          "type": "bytes32"
        },
        {
          "name": "_deposit",
          "type": "uint256"
        },
        {
          "name": "_ownerInvolved",
          "type": "bool"
        }
      ],
      "name": "createGame",
      "outputs": [],
      "payable": true,
      "stateMutability": "payable",
      "type": "function",
      "signature": "0x38d656ab"
    },
    {
      "constant": false,
      "inputs": [
        {
          "name": "gameId",
          "type": "uint256"
        },
        {
          "name": "secret",
          "type": "bytes32"
        }
      ],
      "name": "commitNumber",
      "outputs": [],
      "payable": true,
      "stateMutability": "payable",
      "type": "function",
      "signature": "0x12753d0c"
    },
    {
      "constant": false,
      "inputs": [
        {
          "name": "gameId",
          "type": "uint256"
        },
        {
          "name": "number",
          "type": "uint256"
        }
      ],
      "name": "revealNumber",
      "outputs": [],
      "payable": false,
      "stateMutability": "nonpayable",
      "type": "function",
      "signature": "0x1bdcadec"
    },
    {
      "constant": false,
      "inputs": [
        {
          "name": "gameId",
          "type": "uint256"
        }
      ],
      "name": "completeGame",
      "outputs": [],
      "payable": false,
      "stateMutability": "nonpayable",
      "type": "function",
      "signature": "0xbf51d8c8"
    },
    {
      "constant": false,
      "inputs": [
        {
          "name": "gameId",
          "type": "uint256"
        }
      ],
      "name": "closeGame",
      "outputs": [],
      "payable": false,
      "stateMutability": "nonpayable",
      "type": "function",
      "signature": "0x2d6ef310"
    },
    {
      "constant": false,
      "inputs": [
        {
          "name": "gameId",
          "type": "uint256"
        }
      ],
      "name": "getReward",
      "outputs": [],
      "payable": false,
      "stateMutability": "nonpayable",
      "type": "function",
      "signature": "0x1c4b774b"
    },
    {
      "constant": false,
      "inputs": [
        {
          "name": "gameId",
          "type": "uint256"
        }
      ],
      "name": "getBackDeposit",
      "outputs": [],
      "payable": false,
      "stateMutability": "nonpayable",
      "type": "function",
      "signature": "0x5844f83c"
    }
  ],
  "bytecode": "0x6080604052600360045534801561001557600080fd5b50336000806101000a81548173ffffffffffffffffffffffffffffffffffffffff021916908373ffffffffffffffffffffffffffffffffffffffff1602179055506000809054906101000a900473ffffffffffffffffffffffffffffffffffffffff1673ffffffffffffffffffffffffffffffffffffffff16600073ffffffffffffffffffffffffffffffffffffffff167f8be0079c531659141344cd1fd0a4f28419497f9722a3daafe3b4186f6b6457e060405160405180910390a333600160006101000a81548173ffffffffffffffffffffffffffffffffffffffff021916908373ffffffffffffffffffffffffffffffffffffffff1602179055506135f6806101226000396000f3fe608060405260043610610133576000357c0100000000000000000000000000000000000000000000000000000000900463ffffffff168063022c696e146101385780630c0116ba146101c8578063100aca47146101f357806312753d0c1461021e57806317b7a476146102565780631bdcadec146102815780631c4b774b146102c65780632c7507a8146103015780632d6ef31014610370578063379c0424146103ab57806338d656ab146103d657806348b68140146104245780635298b5db1461047b5780635844f83c146104d8578063715018a6146105135780638da5cb5b1461052a5780638f32d59b1461058157806395e6a53c146105b0578063a2f77bcc1461064a578063bcc941b614610774578063bf51d8c81461079f578063da793b06146107da578063f2fde38b14610829575b600080fd5b34801561014457600080fd5b506101916004803603604081101561015b57600080fd5b8101908080359060200190929190803573ffffffffffffffffffffffffffffffffffffffff16906020019092919050505061087a565b6040518085815260200184151515158152602001831515151581526020018215151515815260200194505050505060405180910390f35b3480156101d457600080fd5b506101dd610974565b6040518082815260200191505060405180910390f35b3480156101ff57600080fd5b5061020861097a565b6040518082815260200191505060405180910390f35b6102546004803603604081101561023457600080fd5b810190808035906020019092919080359060200190929190505050610980565b005b34801561026257600080fd5b5061026b610f2d565b6040518082815260200191505060405180910390f35b34801561028d57600080fd5b506102c4600480360360408110156102a457600080fd5b810190808035906020019092919080359060200190929190505050610f3a565b005b3480156102d257600080fd5b506102ff600480360360208110156102e957600080fd5b81019080803590602001909291905050506114bd565b005b34801561030d57600080fd5b5061035a6004803603604081101561032457600080fd5b8101908080359060200190929190803573ffffffffffffffffffffffffffffffffffffffff169060200190929190505050611a27565b6040518082815260200191505060405180910390f35b34801561037c57600080fd5b506103a96004803603602081101561039357600080fd5b8101908080359060200190929190505050611a9b565b005b3480156103b757600080fd5b506103c0611d9a565b6040518082815260200191505060405180910390f35b610422600480360360808110156103ec57600080fd5b81019080803590602001909291908035906020019092919080359060200190929190803515159060200190929190505050611da7565b005b34801561043057600080fd5b50610439612261565b604051808273ffffffffffffffffffffffffffffffffffffffff1673ffffffffffffffffffffffffffffffffffffffff16815260200191505060405180910390f35b34801561048757600080fd5b506104b46004803603602081101561049e57600080fd5b8101908080359060200190929190505050612287565b60405180848152602001838152602001828152602001935050505060405180910390f35b3480156104e457600080fd5b50610511600480360360208110156104fb57600080fd5b81019080803590602001909291905050506122c0565b005b34801561051f57600080fd5b5061052861264b565b005b34801561053657600080fd5b5061053f61271d565b604051808273ffffffffffffffffffffffffffffffffffffffff1673ffffffffffffffffffffffffffffffffffffffff16815260200191505060405180910390f35b34801561058d57600080fd5b50610596612746565b604051808215151515815260200191505060405180910390f35b3480156105bc57600080fd5b506105e9600480360360208110156105d357600080fd5b810190808035906020019092919050505061279d565b604051808b81526020018a81526020018981526020018881526020018781526020018681526020018581526020018415151515815260200183151515158152602001821515151581526020019a505050505050505050505060405180910390f35b34801561065657600080fd5b506106836004803603602081101561066d57600080fd5b8101908080359060200190929190505050612827565b604051808d81526020018c81526020018b81526020018a81526020018981526020018881526020018781526020018615151515815260200185151515158152602001841515151581526020018060200180602001838103835285818151815260200191508051906020019060200280838360005b838110156107125780820151818401526020810190506106f7565b50505050905001838103825284818151815260200191508051906020019060200280838360005b83811015610754578082015181840152602081019050610739565b505050509050019e50505050505050505050505050505060405180910390f35b34801561078057600080fd5b50610789612a8e565b6040518082815260200191505060405180910390f35b3480156107ab57600080fd5b506107d8600480360360208110156107c257600080fd5b8101908080359060200190929190505050612a94565b005b3480156107e657600080fd5b50610827600480360360608110156107fd57600080fd5b810190808035906020019092919080359060200190929190803590602001909291905050506130ef565b005b34801561083557600080fd5b506108786004803603602081101561084c57600080fd5b81019080803573ffffffffffffffffffffffffffffffffffffffff169060200190929190505050613194565b005b6000806000806108886132ad565b60028781548110151561089757fe5b90600052602060002090600c0201600a0160008773ffffffffffffffffffffffffffffffffffffffff1673ffffffffffffffffffffffffffffffffffffffff16815260200190815260200160002060806040519081016040529081600082015481526020016001820160009054906101000a900460ff161515151581526020016001820160019054906101000a900460ff161515151581526020016001820160029054906101000a900460ff1615151515815250509050806000015181602001518260400151836060015194509450945094505092959194509250565b60045481565b60065481565b600060028381548110151561099157fe5b90600052602060002090600c020190506109a96132df565b600382600101548154811015156109bc57fe5b906000526020600020906003020160606040519081016040529081600082015481526020016001820154815260200160028201548152505090508160070160019054906101000a900460ff16151515610a7d576040517f08c379a000000000000000000000000000000000000000000000000000000000815260040180806020018281038252601e8152602001807f546869732067616d6520697320616c726561647920636f6d706c65746564000081525060200191505060405180910390fd5b8160070160029054906101000a900460ff16151515610b04576040517f08c379a000000000000000000000000000000000000000000000000000000000815260040180806020018281038252601b8152602001807f546869732067616d6520697320616c726561647920636c6f736564000000000081525060200191505060405180910390fd5b43826006015410151515610b80576040517f08c379a00000000000000000000000000000000000000000000000000000000081526004018080602001828103825260178152602001807f546869732067616d652077617320646561646c696e656400000000000000000081525060200191505060405180910390fd5b816002015434141515610c21576040517f08c379a00000000000000000000000000000000000000000000000000000000081526004018080602001828103825260268152602001807f6d73672e76616c75652073686f756c6420657175616c20746f2067616d65206481526020017f65706f736974000000000000000000000000000000000000000000000000000081525060400191505060405180910390fd5b80600001518260040154101515610ca0576040517f08c379a000000000000000000000000000000000000000000000000000000000815260040180806020018281038252601b8152602001807f416c6c207061727469636970616e747320617265206a6f696e6564000000000081525060200191505060405180910390fd5b81600a0160003373ffffffffffffffffffffffffffffffffffffffff1673ffffffffffffffffffffffffffffffffffffffff16815260200190815260200160002060010160019054906101000a900460ff16151515610d67576040517f08c379a00000000000000000000000000000000000000000000000000000000081526004018080602001828103825260108152602001807f596f752061726520636f6d6d697465640000000000000000000000000000000081525060200191505060405180910390fd5b816008013390806001815401808255809150509060018203906000526020600020016000909192909190916101000a81548173ffffffffffffffffffffffffffffffffffffffff021916908373ffffffffffffffffffffffffffffffffffffffff160217905550506080604051908101604052808481526020016000151581526020016001151581526020016000151581525082600a0160003373ffffffffffffffffffffffffffffffffffffffff1673ffffffffffffffffffffffffffffffffffffffff1681526020019081526020016000206000820151816000015560208201518160010160006101000a81548160ff02191690831515021790555060408201518160010160016101000a81548160ff02191690831515021790555060608201518160010160026101000a81548160ff02191690831515021790555090505081600401600081548092919060010191905055507fa9d3a5977e0cd7de9e156619ae5c36ea08cf51e273376bdc93c7f11cf429131b8433604051808381526020018273ffffffffffffffffffffffffffffffffffffffff1673ffffffffffffffffffffffffffffffffffffffff1681526020019250505060405180910390a150505050565b6000600280549050905090565b6000600283815481101515610f4b57fe5b90600052602060002090600c02019050610f636132df565b60038260010154815481101515610f7657fe5b90600052602060002090600302016060604051908101604052908160008201548152602001600182015481526020016002820154815250509050600082600a0160003373ffffffffffffffffffffffffffffffffffffffff1673ffffffffffffffffffffffffffffffffffffffff1681526020019081526020016000206000015490508260070160019054906101000a900460ff16151515611080576040517f08c379a000000000000000000000000000000000000000000000000000000000815260040180806020018281038252601e8152602001807f546869732067616d6520697320616c726561647920636f6d706c65746564000081525060200191505060405180910390fd5b8260070160029054906101000a900460ff16151515611107576040517f08c379a000000000000000000000000000000000000000000000000000000000815260040180806020018281038252601b8152602001807f546869732067616d6520697320616c726561647920636c6f736564000000000081525060200191505060405180910390fd5b43836006015410151515611183576040517f08c379a00000000000000000000000000000000000000000000000000000000081526004018080602001828103825260178152602001807f546869732067616d652077617320646561646c696e656400000000000000000081525060200191505060405180910390fd5b81600001518360040154141515611202576040517f08c379a000000000000000000000000000000000000000000000000000000000815260040180806020018281038252601f8152602001807f4e6f7420616c6c207061727469636970616e747320617265206a6f696e65640081525060200191505060405180910390fd5b81600001518360050154101515611281576040517f08c379a00000000000000000000000000000000000000000000000000000000081526004018080602001828103825260188152602001807f416c6c206e756d62657273206172652072657665616c6564000000000000000081525060200191505060405180910390fd5b61128b8433611a27565b81141515611301576040517f08c379a00000000000000000000000000000000000000000000000000000000081526004018080602001828103825260108152602001807f4e6f742076616c6964206e756d6265720000000000000000000000000000000081525060200191505060405180910390fd5b82600a0160003373ffffffffffffffffffffffffffffffffffffffff1673ffffffffffffffffffffffffffffffffffffffff16815260200190815260200160002060010160009054906101000a900460ff161515156113c8576040517f08c379a000000000000000000000000000000000000000000000000000000000815260040180806020018281038252601c8152602001807f596f75206172652072657665616c656420796f7572206e756d6265720000000081525060200191505060405180910390fd5b8260050160008154809291906001019190505550838360030160008282540192505081905550600183600a0160003373ffffffffffffffffffffffffffffffffffffffff1673ffffffffffffffffffffffffffffffffffffffff16815260200190815260200160002060010160006101000a81548160ff0219169083151502179055507f4b4f3d51c962e0b1d6d8601b0782ca79ee89bc19c1e30cb032467a497acd10968533604051808381526020018273ffffffffffffffffffffffffffffffffffffffff1673ffffffffffffffffffffffffffffffffffffffff1681526020019250505060405180910390a15050505050565b60006002828154811015156114ce57fe5b90600052602060002090600c02019050600081600a0160003373ffffffffffffffffffffffffffffffffffffffff1673ffffffffffffffffffffffffffffffffffffffff16815260200190815260200160002090508160070160019054906101000a900460ff1615156115a9576040517f08c379a00000000000000000000000000000000000000000000000000000000081526004018080602001828103825260158152602001807f47616d65206973206e6f7420636f6d706c65746564000000000000000000000081525060200191505060405180910390fd5b8060010160029054906101000a900460ff16151515611630576040517f08c379a00000000000000000000000000000000000000000000000000000000081526004018080602001828103825260188152602001807f596f752061726520616c7265616479207265776172646564000000000000000081525060200191505060405180910390fd5b81600b0160003373ffffffffffffffffffffffffffffffffffffffff1673ffffffffffffffffffffffffffffffffffffffff16815260200190815260200160002060009054906101000a900460ff1615156116f3576040517f08c379a000000000000000000000000000000000000000000000000000000000815260040180806020018281038252601d8152602001807f596f752061646472657373206973206e6f7420696e2077696e6e65727300000081525060200191505060405180910390fd5b6000826008018054905083600201540290508260070160009054906101000a900460ff161561173057600183600801805490500383600201540290505b600083600901805490508281151561174457fe5b0490508360070160029054906101000a900460ff161561176a57836002015490506118b6565b600060045460648381151561177b57fe5b040290508082039150600160009054906101000a900473ffffffffffffffffffffffffffffffffffffffff1673ffffffffffffffffffffffffffffffffffffffff166108fc829081150290604051600060405180830381858888f193505050501515611875576040517f08c379a00000000000000000000000000000000000000000000000000000000081526004018080602001828103825260288152602001807f54686520636f6e74726163742063616e6e6f742073656e64207265776172642081526020017f746f206f776e657200000000000000000000000000000000000000000000000081525060400191505060405180910390fd5b7f6511a9267f47b4c45087ba28e0d5796415a6d1133f8d6830a3d53b68c15cb9478682604051808381526020018281526020019250505060405180910390a1505b3373ffffffffffffffffffffffffffffffffffffffff166108fc829081150290604051600060405180830381858888f193505050501515611985576040517f08c379a000000000000000000000000000000000000000000000000000000000815260040180806020018281038252602b8152602001807f54686520636f6e74726163742063616e6e6f742073656e64207265776172642081526020017f746f20726563656976657200000000000000000000000000000000000000000081525060400191505060405180910390fd5b60018360010160026101000a81548160ff02191690831515021790555080600654016006819055507f2d2c3375da5b0a5f617bbcefa38e413a9ef5f70e50d0f9c5f6cc0adc3fa35779853383604051808481526020018373ffffffffffffffffffffffffffffffffffffffff1673ffffffffffffffffffffffffffffffffffffffff168152602001828152602001935050505060405180910390a15050505050565b60008282604051602001808381526020018273ffffffffffffffffffffffffffffffffffffffff1673ffffffffffffffffffffffffffffffffffffffff166c010000000000000000000000000281526014019250505060405160208183030381529060405280519060200120905092915050565b6000600282815481101515611aac57fe5b90600052602060002090600c020190508060070160029054906101000a900460ff16151515611b43576040517f08c379a000000000000000000000000000000000000000000000000000000000815260040180806020018281038252601b8152602001807f546869732067616d6520616c726561647920697320636c6f736564000000000081525060200191505060405180910390fd5b8060070160019054906101000a900460ff16151515611bca576040517f08c379a000000000000000000000000000000000000000000000000000000000815260040180806020018281038252601e8152602001807f546869732067616d6520616c726561647920697320636f6d706c65746564000081525060200191505060405180910390fd5b80600a0160003373ffffffffffffffffffffffffffffffffffffffff1673ffffffffffffffffffffffffffffffffffffffff16815260200190815260200160002060010160019054906101000a900460ff161515611c90576040517f08c379a000000000000000000000000000000000000000000000000000000000815260040180806020018281038252601c8152602001807f596f7520617265206e6f742067616d65207061727469636970616e740000000081525060200191505060405180910390fd5b43816006015411158015611ca8575060008160050154145b1515611d42576040517f08c379a000000000000000000000000000000000000000000000000000000000815260040180806020018281038252603e8152602001807f4e6f7420616c6c207061727469636970616e74732072657665616c656420616e81526020017f64207468652067616d6520646561646c696e65206973206e6f74206e6f77000081525060400191505060405180910390fd5b60018160070160026101000a81548160ff0219169083151502179055507f71f4c9aec1b2c51302bcaf09a3f4985709759853536445493905081899603a21826040518082815260200191505060405180910390a15050565b6000600380549050905090565b611daf612746565b1515611dba57600080fd5b836000600382815481101515611dcc57fe5b906000526020600020906003020160000154111515611e53576040517f08c379a000000000000000000000000000000000000000000000000000000000815260040180806020018281038252601d8152602001807f496e76616c69642067616d6520636f6e66696775726174696f6e20496400000081525060200191505060405180910390fd5b600060028054809190600101611e699190613301565b905067016345785d8a000084111515611f10576040517f08c379a00000000000000000000000000000000000000000000000000000000081526004018080602001828103825260268152602001807f41206465706f7369742063616e6e6f7420626520736d616c6c207468616e203081526020017f2e3120657468000000000000000000000000000000000000000000000000000081525060400191505060405180910390fd5b6000600282815481101515611f2157fe5b90600052602060002090600c02019050611f396132df565b600388815481101515611f4857fe5b90600052602060002090600302016060604051908101604052908160008201548152602001600182015481526020016002820154815250509050828260000181905550878260010181905550858260020181905550848260070160006101000a81548160ff02191690831515021790555060008260070160016101000a81548160ff02191690831515021790555060008260070160026101000a81548160ff021916908315150217905550600082600401819055506000826005018190555060006040519080825280602002602001820160405280156120375781602001602082028038833980820191505090505b5082600801908051906020019061204f929190613333565b5060006040519080825280602002602001820160405280156120805781602001602082028038833980820191505090505b50826009019080519060200190612098929190613333565b5060008260030181905550806040015143018260060181905550841561221c57816008016120c461271d565b90806001815401808255809150509060018203906000526020600020016000909192909190916101000a81548173ffffffffffffffffffffffffffffffffffffffff021916908373ffffffffffffffffffffffffffffffffffffffff160217905550506080604051908101604052808881526020016000151581526020016001151581526020016000151581525082600a01600061216061271d565b73ffffffffffffffffffffffffffffffffffffffff1673ffffffffffffffffffffffffffffffffffffffff1681526020019081526020016000206000820151816000015560208201518160010160006101000a81548160ff02191690831515021790555060408201518160010160016101000a81548160ff02191690831515021790555060608201518160010160026101000a81548160ff02191690831515021790555090505081600401600081548092919060010191905055505b7fbd19c47e9925eb6f7be8bb1c13a841e0240aaeaf17f217e90022e9c8eb66877f82600001546040518082815260200191505060405180910390a15050505050505050565b600160009054906101000a900473ffffffffffffffffffffffffffffffffffffffff1681565b60038181548110151561229657fe5b90600052602060002090600302016000915090508060000154908060010154908060020154905083565b60006002828154811015156122d157fe5b90600052602060002090600c02019050600081600a0160003373ffffffffffffffffffffffffffffffffffffffff1673ffffffffffffffffffffffffffffffffffffffff16815260200190815260200160002090508160070160029054906101000a900460ff1615156123ac576040517f08c379a00000000000000000000000000000000000000000000000000000000081526004018080602001828103825260128152602001807f47616d65206973206e6f7420636c6f736564000000000000000000000000000081525060200191505060405180910390fd5b8060010160029054906101000a900460ff16151515612433576040517f08c379a00000000000000000000000000000000000000000000000000000000081526004018080602001828103825260188152602001807f596f752061726520616c7265616479207265776172646564000000000000000081525060200191505060405180910390fd5b8060010160019054906101000a900460ff1615156124df576040517f08c379a00000000000000000000000000000000000000000000000000000000081526004018080602001828103825260268152602001807f596f7520617265206e6f7420636f6d6d6974206e756d62657220696e2074686981526020017f732067616d65000000000000000000000000000000000000000000000000000081525060400191505060405180910390fd5b3373ffffffffffffffffffffffffffffffffffffffff166108fc83600201549081150290604051600060405180830381858888f1935050505015156125b2576040517f08c379a00000000000000000000000000000000000000000000000000000000081526004018080602001828103825260318152602001807f54686520636f6e74726163742063616e6e6f742073656e64206465706f73697481526020017f206261636b20746f20726563656976657200000000000000000000000000000081525060400191505060405180910390fd5b60018160010160026101000a81548160ff0219169083151502179055507faa7c10251886c33e23e8d1e4a860903c5da687ae76635d0e4f791b05b6fb1fbc83338460020154604051808481526020018373ffffffffffffffffffffffffffffffffffffffff1673ffffffffffffffffffffffffffffffffffffffff168152602001828152602001935050505060405180910390a1505050565b612653612746565b151561265e57600080fd5b600073ffffffffffffffffffffffffffffffffffffffff166000809054906101000a900473ffffffffffffffffffffffffffffffffffffffff1673ffffffffffffffffffffffffffffffffffffffff167f8be0079c531659141344cd1fd0a4f28419497f9722a3daafe3b4186f6b6457e060405160405180910390a360008060006101000a81548173ffffffffffffffffffffffffffffffffffffffff021916908373ffffffffffffffffffffffffffffffffffffffff160217905550565b60008060009054906101000a900473ffffffffffffffffffffffffffffffffffffffff16905090565b60008060009054906101000a900473ffffffffffffffffffffffffffffffffffffffff1673ffffffffffffffffffffffffffffffffffffffff163373ffffffffffffffffffffffffffffffffffffffff1614905090565b6002818154811015156127ac57fe5b90600052602060002090600c02016000915090508060000154908060010154908060020154908060030154908060040154908060050154908060060154908060070160009054906101000a900460ff16908060070160019054906101000a900460ff16908060070160029054906101000a900460ff1690508a565b6000806000806000806000806000806060806128416133bd565b60028e81548110151561285057fe5b90600052602060002090600c02016101806040519081016040529081600082015481526020016001820154815260200160028201548152602001600382015481526020016004820154815260200160058201548152602001600682015481526020016007820160009054906101000a900460ff161515151581526020016007820160019054906101000a900460ff161515151581526020016007820160029054906101000a900460ff161515151581526020016008820180548060200260200160405190810160405280929190818152602001828054801561298757602002820191906000526020600020905b8160009054906101000a900473ffffffffffffffffffffffffffffffffffffffff1673ffffffffffffffffffffffffffffffffffffffff168152602001906001019080831161293d575b5050505050815260200160098201805480602002602001604051908101604052809291908181526020018280548015612a1557602002820191906000526020600020905b8160009054906101000a900473ffffffffffffffffffffffffffffffffffffffff1673ffffffffffffffffffffffffffffffffffffffff16815260200190600101908083116129cb575b5050505050815250509050806000015181602001518260400151836060015184608001518560a001518660c001518760e001518861010001518961012001518a61014001518b61016001518191508090509c509c509c509c509c509c509c509c509c509c509c509c505091939597999b5091939597999b565b60055481565b6000600282815481101515612aa557fe5b90600052602060002090600c02019050612abd6132df565b60038260010154815481101515612ad057fe5b906000526020600020906003020160606040519081016040529081600082015481526020016001820154815260200160028201548152505090508160070160019054906101000a900460ff16151515612b91576040517f08c379a000000000000000000000000000000000000000000000000000000000815260040180806020018281038252601e8152602001807f546869732067616d6520697320616c726561647920636f6d706c65746564000081525060200191505060405180910390fd5b8160070160029054906101000a900460ff16151515612c18576040517f08c379a000000000000000000000000000000000000000000000000000000000815260040180806020018281038252601b8152602001807f546869732067616d6520697320616c726561647920636c6f736564000000000081525060200191505060405180910390fd5b60008260050154111515612cba576040517f08c379a000000000000000000000000000000000000000000000000000000000815260040180806020018281038252603c8152602001807f4e6f626f6479206469646e27742072657665616c206e756d6265722c2069732081526020017f696d706f737369626c6520746f2073656c6563742077696e6e6572730000000081525060400191505060405180910390fd5b806000015182600501541480612cd4575043826006015411155b1515612d6e576040517f08c379a000000000000000000000000000000000000000000000000000000000815260040180806020018281038252603e8152602001807f4e6f7420616c6c207061727469636970616e74732072657665616c656420616e81526020017f64207468652067616d6520646561646c696e65206973206e6f74206e6f77000081525060400191505060405180910390fd5b6000816000015143846003015401811515612d8557fe5b0690506000826020015190505b8360080180549050600282811515612da657fe5b0483011115612dbd57818060019003925050612d92565b5b60006001600283811515612dce57fe5b048403011015612de5578180600101925050612dbe565b600060019050600083905060008490506000612dff6132ad565b60008090505b8681101561300f5760008615612e2957849050600096508480600101955050612e3a565b858060019003965050859050600196505b8a60080181815481101515612e4b57fe5b9060005260206000200160009054906101000a900473ffffffffffffffffffffffffffffffffffffffff1693508a600a0160008573ffffffffffffffffffffffffffffffffffffffff1673ffffffffffffffffffffffffffffffffffffffff16815260200190815260200160002060806040519081016040529081600082015481526020016001820160009054906101000a900460ff161515151581526020016001820160019054906101000a900460ff161515151581526020016001820160029054906101000a900460ff16151515158152505092508260200151156130015760018b600b0160008673ffffffffffffffffffffffffffffffffffffffff1673ffffffffffffffffffffffffffffffffffffffff16815260200190815260200160002060006101000a81548160ff0219169083151502179055508a6009018490806001815401808255809150509060018203906000526020600020016000909192909190916101000a81548173ffffffffffffffffffffffffffffffffffffffff021916908373ffffffffffffffffffffffffffffffffffffffff160217905550506005600081548092919060010191905055505b508080600101915050612e05565b5060018960070160016101000a81548160ff0219169083151502179055507fa7690f576eaef889ef9ef29d1eaee6c0e3b073108b66bb8009ec8af6428bb3458a8a600901604051808381526020018060200182810382528381815481526020019150805480156130d457602002820191906000526020600020905b8160009054906101000a900473ffffffffffffffffffffffffffffffffffffffff1673ffffffffffffffffffffffffffffffffffffffff168152602001906001019080831161308a575b5050935050505060405180910390a150505050505050505050565b6130f7612746565b151561310257600080fd5b6000600380548091906001016131189190613425565b9050600060038281548110151561312b57fe5b906000526020600020906003020190508481600001819055508381600101819055508281600201819055507fcaa0982fe217a060eba38c5f803a60904144cc0add6d0021f499515372d4e659826040518082815260200191505060405180910390a15050505050565b61319c612746565b15156131a757600080fd5b6131b0816131b3565b50565b600073ffffffffffffffffffffffffffffffffffffffff168173ffffffffffffffffffffffffffffffffffffffff16141515156131ef57600080fd5b8073ffffffffffffffffffffffffffffffffffffffff166000809054906101000a900473ffffffffffffffffffffffffffffffffffffffff1673ffffffffffffffffffffffffffffffffffffffff167f8be0079c531659141344cd1fd0a4f28419497f9722a3daafe3b4186f6b6457e060405160405180910390a3806000806101000a81548173ffffffffffffffffffffffffffffffffffffffff021916908373ffffffffffffffffffffffffffffffffffffffff16021790555050565b608060405190810160405280600080191681526020016000151581526020016000151581526020016000151581525090565b6060604051908101604052806000815260200160008152602001600081525090565b81548183558181111561332e57600c0281600c02836000526020600020918201910161332d9190613457565b5b505050565b8280548282559060005260206000209081019282156133ac579160200282015b828111156133ab5782518260006101000a81548173ffffffffffffffffffffffffffffffffffffffff021916908373ffffffffffffffffffffffffffffffffffffffff16021790555091602001919060010190613353565b5b5090506133b9919061350a565b5090565b610180604051908101604052806000815260200160008152602001600081526020016000815260200160008152602001600081526020016000815260200160001515815260200160001515815260200160001515815260200160608152602001606081525090565b81548183558181111561345257600302816003028360005260206000209182019101613451919061354d565b5b505050565b61350791905b80821115613503576000808201600090556001820160009055600282016000905560038201600090556004820160009055600582016000905560068201600090556007820160006101000a81549060ff02191690556007820160016101000a81549060ff02191690556007820160026101000a81549060ff02191690556008820160006134ea9190613584565b6009820160006134fa9190613584565b50600c0161345d565b5090565b90565b61354a91905b8082111561354657600081816101000a81549073ffffffffffffffffffffffffffffffffffffffff021916905550600101613510565b5090565b90565b61358191905b8082111561357d576000808201600090556001820160009055600282016000905550600301613553565b5090565b90565b50805460008255906000526020600020908101906135a291906135a5565b50565b6135c791905b808211156135c35760008160009055506001016135ab565b5090565b9056fea165627a7a7230582089a75705907ea6c3dfccb07b21ceb3adbd8cb7d372c4d486d6431c033a8add1d0029",
  "source": "pragma solidity ^0.5.0;\n\nimport 'openzeppelin-solidity/contracts/ownership/Ownable.sol';\n\n//contract FlipperGames {}\n//contract FlipperConfigs {}\n//contract FlipperRewards {}\n\ncontract RandaoFlipper is Ownable {\n\n  // Owner payable address\n  // sets in contract constructor\n  address payable public ownerPayable;\n\n  constructor() public {\n    ownerPayable = msg.sender;\n  }\n\n  // GameCard configuration\n  struct GameConfiguration {\n    uint participantsNumber;\n    uint winnersNumber;\n\n    // After this block users will receive\n    // rewards if anybody address will a winner.\n    // Deposits of participants who did not\n    // reveal, will be divided between winners addresses\n    uint duration;\n  }\n\n  // Participant structure\n  struct GameParticipant {\n    bytes32 secret; // secret on each round\n    bool revealed;\n    bool commited;\n    bool rewarded;\n  }\n\n  struct GameSession {\n    uint id; // GameCard Id\n    uint configId; // Configuration Id\n    uint deposit; // Deposit to join\n    // address owner; // Session owner\n\n    // Random numbers collected from game participants\n    // it is f(p1.num...pN.num)\n    uint random;\n    uint commitCounter;\n    uint revealCounter;\n    uint deadline;\n\n    // Statuses of session\n    bool ownerInvolved;\n    bool completed;\n    bool closed;\n\n    // Participants data\n    address[] participants;\n    address[] winners;\n\n    // For internal logic\n    mapping(address => GameParticipant) _participants;\n    mapping(address => bool) _winners;\n  }\n\n  // -------------------\n  // GameCard sessions data\n  // uint public GameCounter; // Number of games\n  GameSession[] public GameSessions; // Games array\n\n  // ---------------------\n  // Configurations data\n  // uint public ConfigurationsCounter;\n  GameConfiguration[] public GameConfigurations;\n\n  uint public ownerReward = 3; // Owner reward in percents\n  uint public totalWinners;\n  uint public totalFund;\n\n  // ---------------------\n  // Utils functions\n  function encode(uint256 s, address sender) public pure returns (bytes32) {\n    return keccak256(abi.encodePacked(s, sender));\n  }\n\n  // ---------------------------\n  // Create game configuration\n  event GameConfigurationCreated(uint id);\n\n  function createConfiguration(\n    uint _participantsNumber,\n    uint _winnersNumber,\n    uint _duration\n  ) onlyOwner external {\n    uint configurationId = GameConfigurations.length++;\n    GameConfiguration storage configuration = GameConfigurations[configurationId];\n\n    configuration.participantsNumber = _participantsNumber;\n    configuration.winnersNumber = _winnersNumber;\n    configuration.duration = _duration;\n\n    emit GameConfigurationCreated(configurationId);\n  }\n\n  function getConfigurationsCount() public view returns (uint configurationsCount) {\n    return GameConfigurations.length;\n  }\n\n  // ------------------------\n  // Create new game session\n  // with selected configuration\n  event GameCreated(uint id);\n\n  modifier isValidConfiguration(uint configId) {\n    require(\n      GameConfigurations[configId].participantsNumber > 0,\n      \"Invalid game configuration Id\"\n    );\n    _;\n  }\n\n  // Get game participants and winners arrays\n  function getGame(uint gameId) external view returns (\n    uint id,\n    uint configId,\n    uint deposit,\n    uint random,\n    uint commitCounter,\n    uint revealCounter,\n    uint deadline,\n    bool ownerInvolved,\n    bool completed,\n    bool closed,\n    address[] memory participants,\n    address[] memory winners\n  )\n  {\n    GameSession memory game = GameSessions[gameId];\n    return (\n      game.id,\n      game.configId,\n      game.deposit,\n      game.random,\n      game.commitCounter,\n      game.revealCounter,\n      game.deadline,\n      game.ownerInvolved,\n      game.completed,\n      game.closed,\n      game.participants,\n      game.winners\n    );\n  }\n\n  function getGameParticipant(uint gameId, address _participant) external view returns (\n    bytes32 secret,\n    bool revealed,\n    bool commited,\n    bool rewarded\n  ) {\n    GameParticipant memory participant = GameSessions[gameId]._participants[_participant];\n    return (\n      participant.secret,\n      participant.revealed,\n      participant.commited,\n      participant.rewarded\n    );\n  }\n\n  function getGamesCount() public view returns (uint gamesCount) {\n    return GameSessions.length;\n  }\n\n  function createGame(\n    uint _configId,\n    bytes32 _secret,\n    uint _deposit,\n    bool _ownerInvolved\n  ) onlyOwner\n    isValidConfiguration(_configId)\n    payable\n    external\n  {\n    uint gameId = GameSessions.length++;\n\n    require(_deposit > 0.1 ether, \"A deposit cannot be small than 0.1 eth\");\n\n    // Create game\n    GameSession storage game = GameSessions[gameId];\n    GameConfiguration memory configuration = GameConfigurations[_configId];\n\n    game.id = gameId;\n    game.configId = _configId;\n    game.deposit = _deposit;\n    game.ownerInvolved = _ownerInvolved;\n    game.completed = false;\n    game.closed = false;\n    game.commitCounter = 0;\n    game.revealCounter = 0;\n    game.participants = new address[](0);\n    game.winners = new address[](0);\n    game.random = 0;\n    game.deadline = block.number + configuration.duration;\n\n    // Owner will first participant if his involved\n    if(_ownerInvolved) {\n      game.participants.push(owner());\n      game._participants[owner()] = GameParticipant(_secret, false, true, false);\n      game.commitCounter++;\n    }\n\n    emit GameCreated(game.id);\n  }\n\n  // -------------------------\n  // Common clients methods\n  event NumberCommited(uint gameId, address participant);\n\n  function commitNumber(uint gameId, bytes32 secret) payable external {\n    GameSession storage game = GameSessions[gameId];\n    GameConfiguration memory config = GameConfigurations[game.configId];\n\n    require(!game.completed, \"This game is already completed\");\n    require(!game.closed, \"This game is already closed\");\n    require(game.deadline >= block.number, \"This game was deadlined\");\n    require(msg.value == game.deposit, \"msg.value should equal to game deposit\");\n    require(game.commitCounter < config.participantsNumber, \"All participants are joined\");\n    require(!game._participants[msg.sender].commited, \"You are commited\");\n\n    game.participants.push(msg.sender);\n    game._participants[msg.sender] = GameParticipant(secret, false, true, false);\n    game.commitCounter++;\n\n    emit NumberCommited(gameId, msg.sender);\n  }\n\n  event NumberRevealed(uint gameId, address participant);\n\n  function revealNumber(uint gameId, uint number) external {\n    GameSession storage game = GameSessions[gameId];\n    GameConfiguration memory config = GameConfigurations[game.configId];\n    bytes32 secret = game._participants[msg.sender].secret;\n\n    require(!game.completed, \"This game is already completed\");\n    require(!game.closed, \"This game is already closed\");\n    require(game.deadline >= block.number, \"This game was deadlined\");\n    require(game.commitCounter == config.participantsNumber, \"Not all participants are joined\");\n    require(game.revealCounter < config.participantsNumber, \"All numbers are revealed\");\n    require(secret == encode(number, msg.sender), \"Not valid number\");\n    require(!game._participants[msg.sender].revealed, \"You are revealed your number\");\n\n    game.revealCounter++;\n    game.random += number;\n    game._participants[msg.sender].revealed = true;\n\n    emit NumberRevealed(gameId, msg.sender);\n  }\n\n  // -------------------------------\n  // Complete game method calculates\n  // winners by common random number\n  event GameCompleted(uint gameId, address[] winners);\n\n  function completeGame(uint gameId) external {\n    GameSession storage game = GameSessions[gameId];\n    GameConfiguration memory config = GameConfigurations[game.configId];\n\n    require(!game.completed, \"This game is already completed\");\n    require(!game.closed, \"This game is already closed\");\n    require(game.revealCounter > 0, \"Nobody didn't reveal number, is impossible to select winners\");\n    require(\n      game.revealCounter == config.participantsNumber || game.deadline <= block.number,\n      \"Not all participants revealed and the game deadline is not now\"\n    );\n\n    // TODO refactor this\n    uint random = (game.random + block.number) % config.participantsNumber;\n    uint winnersNum = config.winnersNumber;\n\n    while((random + winnersNum / 2) > game.participants.length) { random--; }\n    while((random - winnersNum / 2 + 1) < 0) { random++; }\n\n    bool takeRight = true;\n    uint leftBias = random;\n    uint rightBias = random;\n\n    address winner;\n    GameParticipant memory participant;\n\n    for(uint i = 0; i < winnersNum; i++) {\n      uint bias;\n      if(takeRight) {\n        bias = rightBias;\n        takeRight = false;\n        rightBias++;\n      } else {\n        leftBias--;\n        bias = leftBias;\n        takeRight = true;\n      }\n\n      winner = game.participants[bias];\n      participant = game._participants[winner];\n\n      if(participant.revealed) {\n        game._winners[winner] = true;\n        game.winners.push(winner);\n        totalWinners++;\n      }\n    }\n    // -----------------\n\n    game.completed = true;\n\n    emit GameCompleted(gameId, game.winners);\n  }\n\n  // -----------------------------\n  // Close the failed game and makes\n  // receive deposits to back are possible\n  event GameClosed(uint gameId);\n\n  function closeGame(uint gameId) external {\n    GameSession storage game = GameSessions[gameId];\n\n    require(!game.closed, \"This game already is closed\");\n    require(!game.completed, \"This game already is completed\");\n    require(game._participants[msg.sender].commited, \"You are not game participant\");\n    require(\n      game.deadline <= block.number && game.revealCounter == 0,\n      \"Not all participants revealed and the game deadline is not now\"\n    );\n\n    game.closed = true;\n\n    emit GameClosed(gameId);\n  }\n\n  // -----------------------------\n  // After game is completed\n  // users can get their rewards\n  event RewardSent(uint gameId, address receiver, uint reward);\n  event RewardSentOwner(uint gameId, uint reward);\n\n  function getReward(uint gameId) external {\n    GameSession storage game = GameSessions[gameId];\n    GameParticipant storage participant = game._participants[msg.sender];\n\n    require(game.completed, \"Game is not completed\");\n    require(!participant.rewarded, \"You are already rewarded\");\n    require(game._winners[msg.sender], \"You address is not in winners\");\n\n    // Send reward\n    uint prizePool = (game.deposit * game.participants.length);\n\n    if(game.ownerInvolved) { prizePool = (game.deposit * (game.participants.length - 1)); }\n\n    uint reward = (prizePool / game.winners.length);\n\n    if(game.closed) {\n      reward = game.deposit;\n    } else {\n      uint ownerRewardValue = reward / 100 * ownerReward;\n      reward = reward - ownerRewardValue;\n\n      require(ownerPayable.send(ownerRewardValue), \"The contract cannot send reward to owner\");\n      emit RewardSentOwner(gameId, ownerRewardValue);\n    }\n\n    require(msg.sender.send(reward), \"The contract cannot send reward to receiver\");\n\n    participant.rewarded = true;\n    totalFund = totalFund + reward;\n\n    emit RewardSent(gameId, msg.sender, reward);\n  }\n\n  event DepositGetBack(uint gameId, address receiver, uint deposit);\n\n  function getBackDeposit(uint gameId) external {\n    GameSession storage game = GameSessions[gameId];\n    GameParticipant storage participant = game._participants[msg.sender];\n\n    require(game.closed, \"Game is not closed\");\n    require(!participant.rewarded, \"You are already rewarded\");\n    require(participant.commited, \"You are not commit number in this game\");\n\n    require(msg.sender.send(game.deposit), \"The contract cannot send deposit back to receiver\");\n\n    participant.rewarded = true;\n\n    emit DepositGetBack(gameId, msg.sender, game.deposit);\n  }\n}\n",
  "sourcePath": "/Users/cryptoji/Projects/TokensFlipper/contracts/RandaoFlipper.sol",
  "compiler": {
    "name": "solc",
    "version": "0.5.0+commit.1d4f565a.Emscripten.clang"
  },
  "schemaVersion": "3.0.2",
  "updatedAt": "2019-09-18T17:04:41.336Z",
  "devdoc": {
    "methods": {
      "isOwner()": {
        "return": "true if `msg.sender` is the owner of the contract."
      },
      "owner()": {
        "return": "the address of the owner."
      },
      "renounceOwnership()": {
        "details": "Allows the current owner to relinquish control of the contract."
      },
      "transferOwnership(address)": {
        "details": "Allows the current owner to transfer control of the contract to a newOwner.",
        "params": {
          "newOwner": "The address to transfer ownership to."
        }
      }
    }
  },
  "userdoc": {
    "methods": {
      "renounceOwnership()": {
        "notice": "Renouncing to ownership will leave the contract without an owner. It will not be possible to call the functions with the `onlyOwner` modifier anymore."
      }
    }
  }
}