{
  "contractName": "TokensFlipper",
  "abi": [
    {
      "constant": true,
      "inputs": [],
      "name": "numberOfActiveSessions",
      "outputs": [
        {
          "name": "",
          "type": "uint256"
        }
      ],
      "payable": false,
      "stateMutability": "view",
      "type": "function"
    },
    {
      "constant": true,
      "inputs": [],
      "name": "numberOfSessions",
      "outputs": [
        {
          "name": "",
          "type": "uint256"
        }
      ],
      "payable": false,
      "stateMutability": "view",
      "type": "function"
    },
    {
      "constant": true,
      "inputs": [],
      "name": "numberOfWinners",
      "outputs": [
        {
          "name": "",
          "type": "uint256"
        }
      ],
      "payable": false,
      "stateMutability": "view",
      "type": "function"
    },
    {
      "constant": true,
      "inputs": [],
      "name": "owner",
      "outputs": [
        {
          "name": "",
          "type": "address"
        }
      ],
      "payable": false,
      "stateMutability": "view",
      "type": "function"
    },
    {
      "constant": true,
      "inputs": [],
      "name": "totalWinsFund",
      "outputs": [
        {
          "name": "",
          "type": "uint256"
        }
      ],
      "payable": false,
      "stateMutability": "view",
      "type": "function"
    },
    {
      "inputs": [],
      "payable": false,
      "stateMutability": "nonpayable",
      "type": "constructor"
    },
    {
      "anonymous": false,
      "inputs": [
        {
          "indexed": false,
          "name": "owner",
          "type": "address"
        }
      ],
      "name": "ContractCreated",
      "type": "event"
    },
    {
      "anonymous": false,
      "inputs": [
        {
          "indexed": false,
          "name": "creator",
          "type": "address"
        }
      ],
      "name": "SessionCreated",
      "type": "event"
    },
    {
      "anonymous": false,
      "inputs": [
        {
          "indexed": false,
          "name": "randNumber",
          "type": "uint256"
        }
      ],
      "name": "TestE",
      "type": "event"
    },
    {
      "constant": false,
      "inputs": [
        {
          "name": "_betAmount",
          "type": "uint256"
        },
        {
          "name": "_percentOfWinners",
          "type": "uint256"
        },
        {
          "name": "_numberOfParticipants",
          "type": "uint256"
        }
      ],
      "name": "createSession",
      "outputs": [],
      "payable": true,
      "stateMutability": "payable",
      "type": "function"
    },
    {
      "constant": false,
      "inputs": [
        {
          "name": "sessionID",
          "type": "uint256"
        }
      ],
      "name": "removeSession",
      "outputs": [
        {
          "name": "success",
          "type": "bool"
        }
      ],
      "payable": true,
      "stateMutability": "payable",
      "type": "function"
    },
    {
      "constant": false,
      "inputs": [
        {
          "name": "sessionID",
          "type": "uint256"
        }
      ],
      "name": "joinSession",
      "outputs": [
        {
          "name": "success",
          "type": "bool"
        }
      ],
      "payable": true,
      "stateMutability": "payable",
      "type": "function"
    },
    {
      "constant": true,
      "inputs": [
        {
          "name": "sessionID",
          "type": "uint256"
        }
      ],
      "name": "getSession",
      "outputs": [
        {
          "name": "creator",
          "type": "address"
        },
        {
          "name": "betAmount",
          "type": "uint256"
        },
        {
          "name": "percentOfWinners",
          "type": "uint256"
        },
        {
          "name": "numberOfParticipants",
          "type": "uint256"
        },
        {
          "name": "participants",
          "type": "address[]"
        },
        {
          "name": "winners",
          "type": "address[]"
        },
        {
          "name": "index",
          "type": "uint256"
        },
        {
          "name": "isCompleted",
          "type": "bool"
        },
        {
          "name": "isClosed",
          "type": "bool"
        }
      ],
      "payable": false,
      "stateMutability": "view",
      "type": "function"
    }
  ],
  "bytecode": "0x608060405234801561001057600080fd5b50336000806101000a81548173ffffffffffffffffffffffffffffffffffffffff021916908373ffffffffffffffffffffffffffffffffffffffff1602179055507fcf78cf0d6f3d8371e1075c69c492ab4ec5d8cf23a1a239b6a51a1d00be7ca3126000809054906101000a900473ffffffffffffffffffffffffffffffffffffffff16604051808273ffffffffffffffffffffffffffffffffffffffff1673ffffffffffffffffffffffffffffffffffffffff16815260200191505060405180910390a16116d2806100e46000396000f3fe608060405260043610610099576000357c0100000000000000000000000000000000000000000000000000000000900463ffffffff16806305991eba1461009e5780633bd67f2f146100e4578063402ff0db1461010f5780637decc9e51461024c57806385ac552b146102775780638acfaca9146102b95780638b6a70a7146102e45780638da5cb5b1461032a578063c3ab7afe14610381575b600080fd5b6100ca600480360360208110156100b457600080fd5b81019080803590602001909291905050506103ac565b604051808215151515815260200191505060405180910390f35b3480156100f057600080fd5b506100f9610776565b6040518082815260200191505060405180910390f35b34801561011b57600080fd5b506101486004803603602081101561013257600080fd5b810190808035906020019092919050505061077c565b604051808a73ffffffffffffffffffffffffffffffffffffffff1673ffffffffffffffffffffffffffffffffffffffff16815260200189815260200188815260200187815260200180602001806020018681526020018515151515815260200184151515158152602001838103835288818151815260200191508051906020019060200280838360005b838110156101ed5780820151818401526020810190506101d2565b50505050905001838103825287818151815260200191508051906020019060200280838360005b8381101561022f578082015181840152602081019050610214565b505050509050019b50505050505050505050505060405180910390f35b34801561025857600080fd5b50610261610a65565b6040518082815260200191505060405180910390f35b6102b76004803603606081101561028d57600080fd5b81019080803590602001909291908035906020019092919080359060200190929190505050610a6b565b005b3480156102c557600080fd5b506102ce610fda565b6040518082815260200191505060405180910390f35b610310600480360360208110156102fa57600080fd5b8101908080359060200190929190505050610fe0565b604051808215151515815260200191505060405180910390f35b34801561033657600080fd5b5061033f6114bb565b604051808273ffffffffffffffffffffffffffffffffffffffff1673ffffffffffffffffffffffffffffffffffffffff16815260200191505060405180910390f35b34801561038d57600080fd5b506103966114e0565b6040518082815260200191505060405180910390f35b600081600160008481526020019081526020016000206006015414151561043b576040517f08c379a00000000000000000000000000000000000000000000000000000000081526004018080602001828103825260118152602001807f53657373696f6e206e6f7420666f756e6400000000000000000000000000000081525060200191505060405180910390fd5b60006001600084815260200190815260200160002090508060010154341415156104cd576040517f08c379a000000000000000000000000000000000000000000000000000000000815260040180806020018281038252601d8152602001807f56616c7565206e6f7420657175616c20746f2062657420616d6f756e7400000081525060200191505060405180910390fd5b600115158160080160003373ffffffffffffffffffffffffffffffffffffffff1673ffffffffffffffffffffffffffffffffffffffff16815260200190815260200160002060009054906101000a900460ff161515141515156105be576040517f08c379a00000000000000000000000000000000000000000000000000000000081526004018080602001828103825260278152602001807f596f752061726520616c7265616479206a6f696e656420746f2074686973207381526020017f657373696f6e2e0000000000000000000000000000000000000000000000000081525060400191505060405180910390fd5b8060030154600182600401805490500114156106a95760018160080160003373ffffffffffffffffffffffffffffffffffffffff1673ffffffffffffffffffffffffffffffffffffffff16815260200190815260200160002060006101000a81548160ff021916908315150217905550806004013390806001815401808255809150509060018203906000526020600020016000909192909190916101000a81548173ffffffffffffffffffffffffffffffffffffffff021916908373ffffffffffffffffffffffffffffffffffffffff1602179055505061069f836114e6565b6001915050610771565b60018160080160003373ffffffffffffffffffffffffffffffffffffffff1673ffffffffffffffffffffffffffffffffffffffff16815260200190815260200160002060006101000a81548160ff021916908315150217905550806004013390806001815401808255809150509060018203906000526020600020016000909192909190916101000a81548173ffffffffffffffffffffffffffffffffffffffff021916908373ffffffffffffffffffffffffffffffffffffffff1602179055505060019150505b919050565b60025481565b600080600080606080600080600089600160008c815260200190815260200160002060060154141515610817576040517f08c379a00000000000000000000000000000000000000000000000000000000081526004018080602001828103825260118152602001807f53657373696f6e206e6f7420666f756e6400000000000000000000000000000081525060200191505060405180910390fd5b61081f611572565b600160008c815260200190815260200160002061012060405190810160405290816000820160009054906101000a900473ffffffffffffffffffffffffffffffffffffffff1673ffffffffffffffffffffffffffffffffffffffff1673ffffffffffffffffffffffffffffffffffffffff1681526020016001820154815260200160028201548152602001600382015481526020016004820180548060200260200160405190810160405280929190818152602001828054801561093857602002820191906000526020600020905b8160009054906101000a900473ffffffffffffffffffffffffffffffffffffffff1673ffffffffffffffffffffffffffffffffffffffff16815260200190600101908083116108ee575b50505050508152602001600582018054806020026020016040519081016040528092919081815260200182805480156109c657602002820191906000526020600020905b8160009054906101000a900473ffffffffffffffffffffffffffffffffffffffff1673ffffffffffffffffffffffffffffffffffffffff168152602001906001019080831161097c575b50505050508152602001600682015481526020016007820160009054906101000a900460ff161515151581526020016007820160019054906101000a900460ff1615151515815250509050806000015181602001518260400151836060015184608001518560a001518660c001518760e00151886101000151849450839350995099509950995099509950995099509950509193959799909294969850565b60035481565b3483141515610b08576040517f08c379a00000000000000000000000000000000000000000000000000000000081526004018080602001828103825260278152602001807f42657420616d6f756e742073686f756c6420626520657175616c20746f206d7381526020017f672e76616c75650000000000000000000000000000000000000000000000000081525060400191505060405180910390fd5b6001821180610b175750606482105b1515610bb1576040517f08c379a000000000000000000000000000000000000000000000000000000000815260040180806020018281038252602d8152602001807f50657263656e74206f662077696e6e657273206974206973206e756d6265722081526020017f66726f6d203120746f203130300000000000000000000000000000000000000081525060400191505060405180910390fd5b60028110151515610c2a576040517f08c379a000000000000000000000000000000000000000000000000000000000815260040180806020018281038252601d8152602001807f546865207061727469636970616e742063616e6e6f742073696e676c6500000081525060200191505060405180910390fd5b662386f26fc1000083111515610ca8576040517f08c379a00000000000000000000000000000000000000000000000000000000081526004018080602001828103825260128152602001807f42657420616d6f756e7420746f6f206c6f77000000000000000000000000000081525060200191505060405180910390fd5b600060036000815480929190600101919050559050600260008154809291906001019190505550610120604051908101604052803373ffffffffffffffffffffffffffffffffffffffff1681526020018581526020018481526020018381526020016000604051908082528060200260200182016040528015610d3a5781602001602082028038833980820191505090505b5081526020016000604051908082528060200260200182016040528015610d705781602001602082028038833980820191505090505b508152602001828152602001600015158152602001600015158152506001600083815260200190815260200160002060008201518160000160006101000a81548173ffffffffffffffffffffffffffffffffffffffff021916908373ffffffffffffffffffffffffffffffffffffffff1602179055506020820151816001015560408201518160020155606082015181600301556080820151816004019080519060200190610e209291906115d9565b5060a0820151816005019080519060200190610e3d9291906115d9565b5060c0820151816006015560e08201518160070160006101000a81548160ff0219169083151502179055506101008201518160070160016101000a81548160ff021916908315150217905550905050600180600083815260200190815260200160002060080160003373ffffffffffffffffffffffffffffffffffffffff1673ffffffffffffffffffffffffffffffffffffffff16815260200190815260200160002060006101000a81548160ff021916908315150217905550600160008281526020019081526020016000206004013390806001815401808255809150509060018203906000526020600020016000909192909190916101000a81548173ffffffffffffffffffffffffffffffffffffffff021916908373ffffffffffffffffffffffffffffffffffffffff160217905550507f3d31f7e29070f2ddca897dbc7506e1941bc62759f8ab3f33739619702a89edd333604051808273ffffffffffffffffffffffffffffffffffffffff1673ffffffffffffffffffffffffffffffffffffffff16815260200191505060405180910390a150505050565b60055481565b600081600160008481526020019081526020016000206006015414151561106f576040517f08c379a00000000000000000000000000000000000000000000000000000000081526004018080602001828103825260118152602001807f53657373696f6e206e6f7420666f756e6400000000000000000000000000000081525060200191505060405180910390fd5b611077611572565b6001600084815260200190815260200160002061012060405190810160405290816000820160009054906101000a900473ffffffffffffffffffffffffffffffffffffffff1673ffffffffffffffffffffffffffffffffffffffff1673ffffffffffffffffffffffffffffffffffffffff1681526020016001820154815260200160028201548152602001600382015481526020016004820180548060200260200160405190810160405280929190818152602001828054801561119057602002820191906000526020600020905b8160009054906101000a900473ffffffffffffffffffffffffffffffffffffffff1673ffffffffffffffffffffffffffffffffffffffff1681526020019060010190808311611146575b505050505081526020016005820180548060200260200160405190810160405280929190818152602001828054801561121e57602002820191906000526020600020905b8160009054906101000a900473ffffffffffffffffffffffffffffffffffffffff1673ffffffffffffffffffffffffffffffffffffffff16815260200190600101908083116111d4575b50505050508152602001600682015481526020016007820160009054906101000a900460ff161515151581526020016007820160019054906101000a900460ff1615151515815250509050806000015173ffffffffffffffffffffffffffffffffffffffff163373ffffffffffffffffffffffffffffffffffffffff1614806112f357506000809054906101000a900473ffffffffffffffffffffffffffffffffffffffff1673ffffffffffffffffffffffffffffffffffffffff163373ffffffffffffffffffffffffffffffffffffffff16145b1515611367576040517f08c379a000000000000000000000000000000000000000000000000000000000815260040180806020018281038252600d8152602001807f4163636573732064656e6965640000000000000000000000000000000000000081525060200191505060405180910390fd5b600115158161010001511515141515156113e9576040517f08c379a000000000000000000000000000000000000000000000000000000000815260040180806020018281038252601b8152602001807f546869732073657373696f6e20616c726561647920636c6f736564000000000081525060200191505060405180910390fd5b60008090505b81608001515181101561146f5781608001518181518110151561140e57fe5b9060200190602002015173ffffffffffffffffffffffffffffffffffffffff166108fc83602001519081150290604051600060405180830381858888f19350505050158015611461573d6000803e3d6000fd5b5080806001019150506113ef565b50600180600085815260200190815260200160002060070160016101000a81548160ff021916908315150217905550600260008154809291906001900391905055506001915050919050565b6000809054906101000a900473ffffffffffffffffffffffffffffffffffffffff1681565b60045481565b80600160008381526020019081526020016000206006015414151561150a57600080fd5b600060016000838152602001908152602001600020905060008090505b600a81101561153d578080600101915050611527565b5060018160070160006101000a81548160ff021916908315150217905550600260008154809291906001900391905055505050565b61012060405190810160405280600073ffffffffffffffffffffffffffffffffffffffff1681526020016000815260200160008152602001600081526020016060815260200160608152602001600081526020016000151581526020016000151581525090565b828054828255906000526020600020908101928215611652579160200282015b828111156116515782518260006101000a81548173ffffffffffffffffffffffffffffffffffffffff021916908373ffffffffffffffffffffffffffffffffffffffff160217905550916020019190600101906115f9565b5b50905061165f9190611663565b5090565b6116a391905b8082111561169f57600081816101000a81549073ffffffffffffffffffffffffffffffffffffffff021916905550600101611669565b5090565b9056fea165627a7a72305820094a1c4fe8c336f58665562934edf4ef674e2c929b77cb338012c8fd00a8f2c90029",
  "source": "pragma solidity ^0.5.0;\n\ncontract TokensFlipper {\n\n  event ContractCreated(address owner);\n  event SessionCreated(address creator);\n  event TestE(uint randNumber);\n\n  struct GameSession {\n    address payable creator;\n    uint betAmount;\n    uint percentOfWinners;\n    uint numberOfParticipants;\n    address payable[] participantsList;\n    address payable[] winnersList;\n    uint index;\n    bool isCompleted;\n    bool isClosed;\n\n    // Private*\n    mapping(address => bool) participants;\n  }\n\n  address payable public owner;\n  mapping(uint => GameSession) gameSessions;\n\n  uint public numberOfActiveSessions; // active sessions\n  uint public numberOfSessions; // total number of sessions\n  uint public totalWinsFund; // total number wins fund in wei\n  uint public numberOfWinners; // total number of winners\n\n  modifier onlyOwner() {\n    require(msg.sender == owner, \"Sender douse't owner.\");\n    _;\n  }\n\n  constructor() public {\n    owner = msg.sender;\n    emit ContractCreated(owner);\n  }\n\n  function createSession(\n    uint _betAmount,\n    uint _percentOfWinners,\n    uint _numberOfParticipants\n  ) payable external {\n    require(_betAmount == msg.value, \"Bet amount should be equal to msg.value\");\n    require(_percentOfWinners > 1 || _percentOfWinners < 100, \"Percent of winners it is number from 1 to 100\");\n    require(_numberOfParticipants >= 2, \"The participant cannot single\");\n    require(_betAmount > 0.01 ether, \"Bet amount too low\");\n\n    uint sessionID = numberOfSessions++;\n    numberOfActiveSessions++;\n\n    gameSessions[sessionID] = GameSession({\n      creator: msg.sender, // session owner\n      betAmount: _betAmount, // bet amount\n      percentOfWinners: _percentOfWinners,\n      numberOfParticipants: _numberOfParticipants,\n      participantsList: new address payable[](0), // participants array\n      winnersList: new address payable[](0), // winners array\n      index: sessionID, // session ID\n      isCompleted: false, // is completed\n      isClosed: false // is closed\n    });\n    gameSessions[sessionID].participants[msg.sender] = true;\n    gameSessions[sessionID].participantsList.push(msg.sender);\n\n    emit SessionCreated(msg.sender);\n  }\n\n  function removeSession(uint sessionID) payable external returns (bool success) {\n    require(gameSessions[sessionID].index == sessionID, \"Session not found\");\n\n    GameSession memory session = gameSessions[sessionID];\n\n    require((msg.sender == session.creator || msg.sender == owner), \"Access denied\");\n    require(session.isClosed != true, \"This session already closed\");\n\n    for(uint i = 0; i < session.participantsList.length; i++) {\n      session.participantsList[i].transfer(session.betAmount);\n    }\n\n    gameSessions[sessionID].isClosed = true;\n    numberOfActiveSessions--;\n    return true;\n  }\n\n  function completeSession(uint sessionID) internal {\n    require(gameSessions[sessionID].index == sessionID);\n\n    GameSession storage session = gameSessions[sessionID];\n\n//    uint winnersNumber = session.numberOfParticipants / session.percentOfWinners;\n//    uint totalFund = session.numberOfParticipants * session.betAmount;\n//    uint personFund = totalFund / numberOfWinners;\n\n    for(uint i = 0; i < 10; i++) {\n      // emit TestE(random(session.numberOfParticipants));\n//      session.participantsList[randomNumber].transfer(personFund);\n//      session.winnersList.push(session.participantsList[0]);\n    }\n\n    session.isCompleted = true;\n    numberOfActiveSessions--;\n  }\n\n  // Join to game session\n  function joinSession(uint sessionID) payable external returns (bool success) {\n    require(gameSessions[sessionID].index == sessionID, \"Session not found\");\n\n    GameSession storage session = gameSessions[sessionID];\n\n    require(msg.value == session.betAmount, \"Value not equal to bet amount\");\n    require(session.participants[msg.sender] != true, \"You are already joined to this session.\");\n\n    if(session.participantsList.length + 1 == session.numberOfParticipants) {\n      session.participants[msg.sender] = true;\n      session.participantsList.push(msg.sender);\n\n      completeSession(sessionID);\n      return true;\n    }\n    session.participants[msg.sender] = true;\n    session.participantsList.push(msg.sender);\n    return true;\n  }\n\n  function getSession(uint sessionID) view external returns (\n    address payable creator,\n    uint betAmount,\n    uint percentOfWinners,\n    uint numberOfParticipants,\n    address payable[] memory participants,\n    address payable[] memory winners,\n    uint index,\n    bool isCompleted,\n    bool isClosed\n  ) {\n    require(gameSessions[sessionID].index == sessionID, \"Session not found\");\n    GameSession memory session = gameSessions[sessionID];\n    return (\n      session.creator,\n      session.betAmount,\n      session.percentOfWinners,\n      session.numberOfParticipants,\n      session.participantsList,\n      session.winnersList,\n      session.index,\n      session.isCompleted,\n      session.isClosed\n    );\n  }\n}\n",
  "sourcePath": "/Users/cryptoji/Projects/TokensFlipper/contracts/TokensFlipper.sol",
  "compiler": {
    "name": "solc",
    "version": "0.5.0+commit.1d4f565a.Emscripten.clang"
  },
  "schemaVersion": "3.0.2",
  "updatedAt": "2019-02-25T14:33:03.262Z",
  "devdoc": {
    "methods": {}
  },
  "userdoc": {
    "methods": {}
  }
}