{
  "contractName": "TokensFlipper",
  "abi": [
    {
      "constant": true,
      "inputs": [],
      "name": "numberOfGameSessions",
      "outputs": [
        {
          "name": "",
          "type": "uint256"
        }
      ],
      "payable": false,
      "stateMutability": "view",
      "type": "function",
      "signature": "0x725aac10"
    },
    {
      "constant": true,
      "inputs": [],
      "name": "numberOfWinners",
      "outputs": [
        {
          "name": "",
          "type": "uint256"
        }
      ],
      "payable": false,
      "stateMutability": "view",
      "type": "function",
      "signature": "0x8acfaca9"
    },
    {
      "constant": true,
      "inputs": [],
      "name": "totalWinsFund",
      "outputs": [
        {
          "name": "",
          "type": "uint256"
        }
      ],
      "payable": false,
      "stateMutability": "view",
      "type": "function",
      "signature": "0xc3ab7afe"
    },
    {
      "inputs": [],
      "payable": false,
      "stateMutability": "nonpayable",
      "type": "constructor",
      "signature": "constructor"
    },
    {
      "constant": false,
      "inputs": [
        {
          "name": "_betAmount",
          "type": "uint256"
        },
        {
          "name": "_percentOfWinners",
          "type": "uint256"
        },
        {
          "name": "_numberOfParticipants",
          "type": "uint256"
        }
      ],
      "name": "createSession",
      "outputs": [
        {
          "name": "success",
          "type": "bool"
        }
      ],
      "payable": true,
      "stateMutability": "payable",
      "type": "function",
      "signature": "0x85ac552b"
    },
    {
      "constant": false,
      "inputs": [
        {
          "name": "sessionID",
          "type": "uint256"
        }
      ],
      "name": "joinSession",
      "outputs": [
        {
          "name": "success",
          "type": "bool"
        }
      ],
      "payable": true,
      "stateMutability": "payable",
      "type": "function",
      "signature": "0x05991eba"
    },
    {
      "constant": true,
      "inputs": [
        {
          "name": "sessionID",
          "type": "uint256"
        }
      ],
      "name": "getSession",
      "outputs": [
        {
          "name": "creator",
          "type": "address"
        },
        {
          "name": "betAmount",
          "type": "uint256"
        },
        {
          "name": "percentOfWinners",
          "type": "uint256"
        },
        {
          "name": "numberOfParticipants",
          "type": "uint256"
        },
        {
          "name": "participants",
          "type": "address[]"
        }
      ],
      "payable": false,
      "stateMutability": "view",
      "type": "function",
      "signature": "0x402ff0db"
    },
    {
      "constant": false,
      "inputs": [],
      "name": "withdrawAll",
      "outputs": [
        {
          "name": "success",
          "type": "bool"
        }
      ],
      "payable": true,
      "stateMutability": "payable",
      "type": "function",
      "signature": "0x853828b6"
    }
  ],
  "bytecode": "0x608060405234801561001057600080fd5b50336000806101000a81548173ffffffffffffffffffffffffffffffffffffffff021916908373ffffffffffffffffffffffffffffffffffffffff160217905550610a0a806100606000396000f3fe608060405260043610610083576000357c0100000000000000000000000000000000000000000000000000000000900463ffffffff16806305991eba14610088578063402ff0db146100ce578063725aac10146101a6578063853828b6146101d157806385ac552b146101f35780638acfaca91461024d578063c3ab7afe14610278575b600080fd5b6100b46004803603602081101561009e57600080fd5b81019080803590602001909291905050506102a3565b604051808215151515815260200191505060405180910390f35b3480156100da57600080fd5b50610107600480360360208110156100f157600080fd5b8101908080359060200190929190505050610462565b604051808673ffffffffffffffffffffffffffffffffffffffff1673ffffffffffffffffffffffffffffffffffffffff16815260200185815260200184815260200183815260200180602001828103825283818151815260200191508051906020019060200280838360005b8381101561018e578082015181840152602081019050610173565b50505050905001965050505050505060405180910390f35b3480156101b257600080fd5b506101bb610597565b6040518082815260200191505060405180910390f35b6101d961059d565b604051808215151515815260200191505060405180910390f35b6102336004803603606081101561020957600080fd5b810190808035906020019092919080359060200190929190803590602001909291905050506106e9565b604051808215151515815260200191505060405180910390f35b34801561025957600080fd5b50610262610905565b6040518082815260200191505060405180910390f35b34801561028457600080fd5b5061028d61090b565b6040518082815260200191505060405180910390f35b600080600160008481526020019081526020016000209050600115158160050160003373ffffffffffffffffffffffffffffffffffffffff1673ffffffffffffffffffffffffffffffffffffffff16815260200190815260200160002060009054906101000a900460ff161515141561031b57600080fd5b806001015434141515610396576040517f08c379a000000000000000000000000000000000000000000000000000000000815260040180806020018281038252601d8152602001807f56616c7565206e6f7420657175616c20746f2062657420616d6f756e7400000081525060200191505060405180910390fd5b60018160050160003373ffffffffffffffffffffffffffffffffffffffff1673ffffffffffffffffffffffffffffffffffffffff16815260200190815260200160002060006101000a81548160ff021916908315150217905550806004013390806001815401808255809150509060018203906000526020600020016000909192909190916101000a81548173ffffffffffffffffffffffffffffffffffffffff021916908373ffffffffffffffffffffffffffffffffffffffff160217905550506001915050919050565b60008060008060606001600087815260200190815260200160002060000160009054906101000a900473ffffffffffffffffffffffffffffffffffffffff1660016000888152602001908152602001600020600101546001600089815260200190815260200160002060020154600160008a815260200190815260200160002060030154600160008b81526020019081526020016000206004018080548060200260200160405190810160405280929190818152602001828054801561057d57602002820191906000526020600020905b8160009054906101000a900473ffffffffffffffffffffffffffffffffffffffff1673ffffffffffffffffffffffffffffffffffffffff1681526020019060010190808311610533575b505050505090509450945094509450945091939590929450565b60025481565b60008060009054906101000a900473ffffffffffffffffffffffffffffffffffffffff1673ffffffffffffffffffffffffffffffffffffffff163373ffffffffffffffffffffffffffffffffffffffff16141515610663576040517f08c379a00000000000000000000000000000000000000000000000000000000081526004018080602001828103825260168152602001807f53656e646572206e6f7420617574686f72697a65642e0000000000000000000081525060200191505060405180910390fd5b6000809054906101000a900473ffffffffffffffffffffffffffffffffffffffff1673ffffffffffffffffffffffffffffffffffffffff166108fc3073ffffffffffffffffffffffffffffffffffffffff16319081150290604051600060405180830381858888f193505050501580156106e1573d6000803e3d6000fd5b506001905090565b600083341415156106f957600080fd5b60006002600081548092919060010191905055905060a0604051908101604052803373ffffffffffffffffffffffffffffffffffffffff16815260200186815260200185815260200184815260200160006040519080825280602002602001820160405280156107785781602001602082028038833980820191505090505b508152506001600083815260200190815260200160002060008201518160000160006101000a81548173ffffffffffffffffffffffffffffffffffffffff021916908373ffffffffffffffffffffffffffffffffffffffff1602179055506020820151816001015560408201518160020155606082015181600301556080820151816004019080519060200190610810929190610911565b50905050600180600083815260200190815260200160002060050160003373ffffffffffffffffffffffffffffffffffffffff1673ffffffffffffffffffffffffffffffffffffffff16815260200190815260200160002060006101000a81548160ff021916908315150217905550600160008281526020019081526020016000206004013390806001815401808255809150509060018203906000526020600020016000909192909190916101000a81548173ffffffffffffffffffffffffffffffffffffffff021916908373ffffffffffffffffffffffffffffffffffffffff1602179055505060019150509392505050565b60045481565b60035481565b82805482825590600052602060002090810192821561098a579160200282015b828111156109895782518260006101000a81548173ffffffffffffffffffffffffffffffffffffffff021916908373ffffffffffffffffffffffffffffffffffffffff16021790555091602001919060010190610931565b5b509050610997919061099b565b5090565b6109db91905b808211156109d757600081816101000a81549073ffffffffffffffffffffffffffffffffffffffff0219169055506001016109a1565b5090565b9056fea165627a7a72305820fad7a0fbfb83a4401d5fcfd64ad2ccb1c0b87c5f5bee802666f3f49e22385e300029",
  "source": "pragma solidity ^0.5.0;\n\ncontract TokensFlipper {\n\n  struct GameSession {\n    address payable creator;\n    uint betAmount;\n    uint percentOfWinners;\n    uint numberOfParticipants;\n    address payable[] participantsList;\n    mapping(address => bool) participants;\n  }\n\n  address payable owner;\n  mapping(uint => GameSession) gameSessions;\n\n  uint public numberOfGameSessions;\n  uint public totalWinsFund;\n  uint public numberOfWinners;\n\n  constructor() public {\n    owner = msg.sender;\n  }\n\n  function createSession(\n    uint _betAmount,\n    uint _percentOfWinners,\n    uint _numberOfParticipants\n  ) payable public returns (bool success) {\n    if(msg.value != _betAmount) { revert(); }\n\n    uint sessionID = numberOfGameSessions++;\n    gameSessions[sessionID] = GameSession(\n      msg.sender,\n      _betAmount,\n      _percentOfWinners,\n      _numberOfParticipants,\n      new address payable[](0)\n    );\n    gameSessions[sessionID].participants[msg.sender] = true;\n    gameSessions[sessionID].participantsList.push(msg.sender);\n\n    return true;\n  }\n\n  // Join to game session\n  function joinSession(uint sessionID) payable public returns (bool success) {\n    GameSession storage session = gameSessions[sessionID];\n\n    if(session.participants[msg.sender] == true) { revert(); }\n    require(msg.value == session.betAmount, \"Value not equal to bet amount\");\n\n    session.participants[msg.sender] = true;\n    session.participantsList.push(msg.sender);\n\n    return true;\n  }\n\n  function getSession(uint sessionID) view public returns (\n    address payable creator,\n    uint betAmount,\n    uint percentOfWinners,\n    uint numberOfParticipants,\n    address payable[] memory participants\n  ) {\n    return (\n      gameSessions[sessionID].creator,\n      gameSessions[sessionID].betAmount,\n      gameSessions[sessionID].percentOfWinners,\n      gameSessions[sessionID].numberOfParticipants,\n      gameSessions[sessionID].participantsList\n    );\n  }\n\n  function withdrawAll() payable public returns (bool success) {\n    require(msg.sender == owner, \"Sender not authorized.\");\n    owner.transfer(address(this).balance);\n    return true;\n  }\n\n  function pseudoRandom() private view returns(uint){\n    return uint(keccak256(abi.encodePacked(block.difficulty, now, block.timestamp)));\n  }\n}\n",
  "sourcePath": "/Users/cryptoji/Projects/TokensFlipper/contracts/TokensFlipper.sol",
  "compiler": {
    "name": "solc",
    "version": "0.5.0+commit.1d4f565a.Emscripten.clang"
  },
  "schemaVersion": "3.0.2",
  "updatedAt": "2019-02-14T10:21:16.589Z",
  "devdoc": {
    "methods": {}
  },
  "userdoc": {
    "methods": {}
  }
}